:020000040800F2
:1000000018340020292C0008490C00084B0C00086B
:100010004F0C0008530C0008570C000800000000AB
:100020000000000000000000000000005B0C000861
:100030005D0C0008000000005F0C0008610C000867
:10004000432C0008432C0008432C0008432C0008D4
:10005000432C0008432C0008432C0008432C0008C4
:10006000432C0008432C0008432C0008432C0008B4
:10007000432C0008432C0008432C0008432C0008A4
:10008000432C0008432C0008432C0008432C000894
:10009000432C0008432C0008432C0008432C000884
:1000A000432C0008432C0008432C0008432C000874
:1000B000432C0008432C0008432C0008432C000864
:1000C000432C0008432C0008432C0008432C000854
:1000D000432C0008AF220008432C0008432C0008E2
:1000E000432C0008432C0008432C0008432C000834
:1000F000432C0008432C0008432C0008432C000824
:10010000432C0008432C0008432C0008432C000813
:100110001B240008432C0008432C0008432C000833
:10012000432C0008432C0008432C0008432C0008F3
:1001300000F002F800F04EF80AA090E8000C8244AB
:100140008344AAF10107DA4501D100F043F8AFF288
:10015000090EBAE80F0013F0010F18BFFB1A43F0A5
:1001600001031847E445000004460000103A24BF8C
:1001700078C878C1FAD8520724BF30C830C144BF0C
:1001800004680C607047000000230024002500264E
:10019000103A28BF78C1FBD8520728BF30C148BFEA
:1001A0000B607047642903F00587782903F03E87C8
:1001B000632904F0DA80002070471FB504F06EF860
:1001C00004000020002104F07BF9401C60601FBD8A
:1001D00010B510BD04F048F91146FFF7EEFF00F02E
:1001E00023FB04F066F903B4FFF7F2FF03BC02F04F
:1001F0004FF8000030BF72B662B680F308887047CF
:1002000070B504460D462946204601F0C2FD022085
:1002100070BD2DE9F04F87B04FF0000AD046C346BD
:1002200000260027002500200490059006908146B6
:100230000390FC48007820BBFB48007888B101207F
:10024000039003A9F94BCDE90010F9480278012188
:10025000F84801F06FFF00F0FF0A5146F548FFF73C
:10026000CFFFF5480078401CF3490870EE4800784D
:1002700010B90A20F1490870EF480178F0A003F0A6
:100280002FFEE848007801281ED1E7480078D8B151
:10029000F0480088022803D00120EF49C87002E02E
:1002A0000220ED49C8700420EB49E04BCDE9001075
:1002B000DF480278D221DF4801F03CFF00F0FF0A5E
:1002C0005146DC48FFF79CFFD6480078401CD549D2
:1002D0000870084600780A2801DB0020087042F206
:1002E000107001F0A8FF002404E00020DB4908554D
:1002F0008046641CB4F57A7FF7D3D94801F014FF27
:1003000000287DD0D64801F00FFF80464246D349F1
:10031000D34801F0C7FE4146D2A003F0E1FD4346B9
:10032000CE4AD6A1022002F04EF94246CB49D5482A
:1003300000F0A2FF8346002454E2D248005D7E28EC
:100340007ED1D049601C085C0E28F9D1CE480078D7
:10035000401CCD4908700120CC490870C949601D76
:10036000095CC84AA01D105C01EB002086B2B21DDA
:1003700091B2C44A2244501C01F01AF80746C4A0A6
:1003800003F0AEFDF9B2C5A003F0AAFD3912C3A077
:1003900003F0A6FDC2A003F0A3FDE01D3044B94A5E
:1003A000115CBEA003F09CFDE01D3044401CB54A2A
:1003B000115CBAA003F094FDBCA003F091FDE01D18
:1003C0003044B049085CF9B28842B9D1E01D3044EC
:1003D000401CAC49085CB0EB172FB1D12144C81DBB
:1003E0000422924903F060FE00282DD19048007845
:1003F000401C8F490870A349A01C085CDD2800E060
:100400000FE222D100208C49087093489D49B1F831
:100410000B200280497B817001228E49A44800F0A4
:1004200061FD04208C49814BCDE9001080480278A1
:10043000D221804801F07EFE00F0FF0A514600E024
:10044000CFE17C48FFF7DCFEBFE18E49A01C085CD1
:10045000D02877D1002078490870734908709548F2
:10046000006808B9012000E0002092490860854931
:1004700004F10C00095C834A401E105C01EB002073
:100480008D49088008460088022804D10422674963
:100490008A4800F038FD88480088401C864908805A
:1004A000784904F10D00085C0106764A04F10E005B
:1004B000105C01EB004104F10F00105C01EB002126
:1004C00004F11000105C0D18114604F11200095CD3
:1004D000401E105C01EB0020794908800846018825
:1004E00078A003F0FDFC5B480088022818D17B4807
:1004F000284472490E3988420ED2624A224402F1DF
:100500001301764AA8186E4A128803F07DFC4FF456
:100510007A7001F090FE19E071A003F0E1FC15E0A3
:1005200066480E382844734988420CD2554A224402
:1005300002F11301614A0E3AA818614A128803F0C9
:1005400063FC03E03BE066A003F0CAFC642001F01A
:1005500072FE59480088401E000A8DF81000564867
:100560000078401EC0B28DF81100280E8DF81200E0
:10057000280C8DF81300280A8DF81400E8B28DF8C5
:1005800015004F480088000A8DF816004C48007886
:100590008DF8170001208DF81800092004A9234BBD
:1005A000CDE9001022480278D321224801F0C2FD93
:1005B00000F0FF0A51461F48FFF722FE05E13149CE
:1005C000A01C085CDE28F9D100201B49087002201D
:1005D0001449087038480088401E37490880384858
:1005E00000880544274820441B49B0F80B200A80A6
:1005F000407B8870234904F11000095C214A401EA9
:10060000105C01EB00202C49098888427FD11148F9
:100610000088022873D101223749254800F073FC75
:1006200072E074E0180000201B0000200000002091
:100630001200002040080020040000200C000020D0
:100640007570646174655F636F756E743D25640DCC
:100650000A0000000A0000200D00002067080020AA
:10066000001C002072785F6275665F6765745F6C5E
:10067000656E203D2025640D0A0000005245435F51
:1006800042554600700000201A000020190000208A
:100690006372635F636865636B3A0000255800000E
:1006A00020206372635F7372633A00000D0A0000DA
:1006B000006F00089C012142160000200E50030824
:1006C000140000207570646174655F646174655F17
:1006D0006C656E3D25640D0A0000000000000108F5
:1006E000B9CCBCFEB3ACB3F6666C617368B4F3D03E
:1006F000A10000000000060806000020FFE701221C
:10070000F749F84800F0FFFB4FF0010901E04FF016
:100710000009F548F5490A88028089788170F44813
:100720000088000AF0490871F14800784871280AE9
:100730008871CD71084680F808900920ED4BCDE90D
:100740000010ED480278D421EC4801F0F3FC00F0F1
:10075000FF0A5146E948FFF753FD4FF47A7001F064
:100760006AFDB9F1000F30D00122E549DD4800F003
:10077000B9FBE3480088E349098888420FD1042285
:10078000DC49E14800F0BFFB4FF47A7001F053FD03
:10079000DEA003F0A5FBE44803F067FB15E0D848B2
:1007A0000088CF49098888420FD10422D149D64810
:1007B00000F0A9FB4FF47A7001F03DFDDBA003F0DF
:1007C0008FFBD1480E3803F050FBA0190930DE49E9
:1007D000085C7F2804D10020DC490870DC490870DF
:1007E00003E0641C5C45FFF4A8AD00BFD748017866
:1007F000D8A003F075FBD6480178DDA003F070FBAC
:10080000D248007818B1D2480078052809DBDDA06D
:1008100003F066FB01F041FE4FF000080020CC49D8
:10082000087007B0BDE8F08F8AB02821684603F051
:1008300009FD4FF4612001F054FD01F0BFFC4FF4BD
:10084000E13001F09AFDD648D649086001F082FBFC
:1008500000F0F8FAD4A003F043FB0A226946AA4844
:100860000E3800F03FFB4FF47A7001F0E4FC0122F7
:10087000A3499C4800F036FBBDF80E009D49087066
:10088000BDF80E00000A4870BDF810008870BDF871
:100890001000000AC8700320C8490870002405E051
:1008A0004FF47A7001F0C7FC601CC4B20A2CF7DB6D
:1008B0003FE0C348006808B9012000E00020C049BB
:1008C0000860FFF7A6FC4FF4FA7001F0B4FCBD48D5
:1008D0000078BA49097888422BDB0020B9490870B2
:1008E000012287497F4800F0FDFA002405E04FF41B
:1008F0007A7001F0A0FC601CC4B20A2CF7DB8048BF
:10090000008877490988884206D080A003F0E8FA79
:10091000854803F0AAFA0CE07948008870490988F4
:10092000884206D181A003F0DBFA77480E3803F045
:100930009CFABEE770B505460E46002404E0295D2A
:10094000A1A003F0CDFA641CB442F8D375A003F063
:10095000C7FA70BDF8B5002000900025002600F011
:100960006FFC4FF4FA7001F066FC684601F08FFDF1
:10097000074696A100F052FB0546684601F087FD48
:10098000074693A100F04AFB0646684601F07FFD4A
:1009900007460099FFF7CEFF01F07FFD00F05EFCF7
:1009A0004FF4FA7001F047FC684601F070FD07460D
:1009B00086A100F033FB0546684601F068FD074656
:1009C00083A100F02BFB0646684601F060FD074658
:1009D0000099FFF7AFFF01F060FD002427E000F071
:1009E00044FB41F2883001F026FC684601F04FFDDF
:1009F000074676A100F012FB0546684601F047FD68
:100A0000074673A100F00AFB0646684601F03FFD69
:100A100007460099FFF78EFF01F03FFD0DB106B1CB
:100A200007E0022C01D10020F8BD601CC4B2032CE9
:100A3000D5DB00BF00241EE000F025FB4FF4FA7068
:100A400001F0F9FB684601F022FD07465FA100F0C6
:100A5000E5FA0546684601F01AFD07460099FFF7DA
:100A600069FF01F01AFD05B107E0022C01D1002059
:100A7000DAE7601CC4B2032CDEDB00BF00241AE0FE
:100A800000F00FFB4FF4FA7001F0D5FB684601F05F
:100A9000FEFC07464DA100F0C1FA0546684601F08C
:100AA000F6FC07460099FFF745FF01F0F6FC05B19B
:100AB00003E0601CC4B2032CE2DB00BF00F0FFFACD
:100AC0004FF4FA7001F0B7FB684601F0E0FC07460E
:100AD0000099FFF72FFF01F0E0FC00249CE00000EC
:100AE00008000020006F00085E0800200D000020B4
:100AF0001600002000000020120000204008002006
:100B00000A000020060000200E500308BFAACABC3D
:100B1000D6B4D0D0464C41534831D3C3BBA7B4FA66
:100B2000C2EB21210D0A000000000108BFAACABCC7
:100B3000D6B4D0D0464C41534832D3C3BBA7B4FA45
:100B4000C2EB21210D0A00007000002019000020D6
:100B50001A00002072785F6275665F6E6F5F636C6B
:100B600065616E5F666C61673D25640D0A0000007B
:100B700072785F6275665F636F756E743D25640D94
:100B80000A00000073696D383030615F72785F620F
:100B900075666665725F636C65616E0D0A000000C4
:100BA000C52400084C000020D5FDD4DABCECB2E22C
:100BB000B9CCBCFEB8FCD0C2210D0A000C0000204C
:100BC000A081214204000020256300004F4B00005B
:100BD0003100000019491A4800F07FFA4FF4FA700A
:100BE00001F029FB684601F052FC0746AFF22401F0
:100BF00000F014FA0546684601F049FC07460099E2
:100C0000FFF798FE01F049FC05B107E0022C01D185
:100C1000002009E7601CC4B2032CDBDB00BF01200D
:100C200002E770B505460E46002404E0295D05A0E4
:100C300003F056F9641CB442F8D370BDEC440008CC
:100C4000F144000825582000704700BFFEE700BFB0
:100C5000FEE700BFFEE700BFFEE770477047704742
:100C6000704700000CB50020019000906C480068AF
:100C700040F480306A49086000BF6948006800F4A9
:100C8000003000900198401C0190009818B901981C
:100C9000B0F5A06FF1D16248006800F4003010B1E7
:100CA0000120009001E0002000900098012843D12D
:100CB0005C48006840F010005A4908600846006827
:100CC00020F0030008600846006840F00200086059
:100CD00053484068524948600846406848600846A2
:100CE000406840F4806048600846406820F47C100A
:100CF00048600846406840F4E810486008460068CC
:100D000040F08070086000BF4548006800F0007047
:100D10000028F9D04248406820F00300404948606C
:100D20000846406840F00200486000BF3C48406808
:100D300000F00C000828F9D10CBD10B5FFF792FFA8
:100D400010BD10B53648006840F001003449086015
:100D50000846406834490840314948600846006800
:100D6000324908402E4908600846006820F4802077
:100D700008600846406820F4FE0048604FF41F00F9
:100D80008860FFF7DAFF4FF000602949086010BD66
:100D900010B5002100200022214B5B6803F00C01FC
:100DA00021B1042906D0082928D107E0214B224C83
:100DB000236027E01F4B204C236023E0184B5B6827
:100DC00003F47010164B5B6803F48032022303EBCC
:100DD000904022B9194B4343174C23600DE0104B50
:100DE0005B6803F4003323B1144B4343124C23607C
:100DF00003E0104B4343104C236003E00D4B0E4CBB
:100E0000236000BF00BF064B5B68C3F303130C4CA9
:100E1000E15C094B1B68CB40074C236010BD000010
:100E200000100240002002400000FFF8FFFFF6FE25
:100E300008ED00E000127A001C00002000093D00CF
:100E40002000002008B50121482002F097FA012176
:100E5000042002F093FA2020ADF8000010208DF855
:100E6000030003208DF802006946104801F0CAFF14
:100E700020210E4802F073F84FF48070ADF80000A6
:100E800069460A4801F0BEFF4FF48071084802F03D
:100E900066F88020ADF800006946064801F0B2FF10
:100EA0008021044802F05BF808BD0000000C0140FE
:100EB00000180140000801400146088870472DE9EC
:100EC000F04105460E461746002407E036F8141098
:100ED000284602F022FEAD1C601C84B2BC42F5DB49
:100EE000BDE8F08130B503460C461546002207E008
:100EF0001846FFF7E1FF24F812009B1C501C82B239
:100F0000AA42F5DB30BD2DE9F05F80468A461746E0
:100F1000B8F1006F02D33748804501D3BDE8F09F98
:100F200002F0B3FCA8F1006B4FEADB25CBF34909D3
:100F3000C9F58064A74200DC3C464DE04FF00061FB
:100F400001EBC5204A142C49FFF7CCFF00260BE02B
:100F500009EB0600284931F810004FF6FF7188426E
:100F600000D003E0701C86B2A642F1DB00BFA642AF
:100F70001BDA4FF0006101EBC52002F0CBFC00262C
:100F800008E03AF8160006EB09011B4A22F81100A6
:100F9000701C86B2A642F4DB4FF0006101EBC52065
:100FA0004A141549FFF78BFF04E02246514640469C
:100FB000FFF785FFA74200D10FE06D1C4FF000093D
:100FC0000AEB440AA044381B87B2B7F5806F02DDF4
:100FD0004FF4806400E03C46B0E700BF02F061FCE3
:100FE00000BF9BE713B50446012201A92046FFF785
:100FF0008AFF1CBD000008080014002070B50546DB
:101000000E46002404E0295DC1A002F069FF641CC3
:10101000B442F8D3BFA002F063FF70BD70B50446C0
:101020000D4600262946204603F02CF80646304699
:1010300070BD70B590B004460E464021684603F07E
:1010400001F935462A462146684603F084F82946C8
:10105000684601F008FA0221AEA001F004FA294620
:101060006846FFF7CBFF10B070BD3EB5AAA207CA15
:101070008DE80700684603F043F8C4B2214668468D
:10108000FFF7D7FF3EBD1FB5A6A30FCB8DE80F001E
:10109000684603F035F8C4B221466846FFF7C9FF39
:1010A0001FBD3EB5A3A207CA8DE80700684603F03E
:1010B00027F8C4B221466846FFF7BBFF3EBD3EB5E8
:1010C0009FA207CA8DE80700684603F019F8C4B26A
:1010D00021466846FFF7ADFF3EBD70B58EB00446B1
:1010E0000D46202106A803F0ADF8142297A101A80F
:1010F00003F076F801A803F003F80646324601A98A
:1011000006A803F06DF8214606A803F018F89449E4
:1011100006A803F014F8934906A803F010F89049C4
:1011200006A803F00CF8294606A803F008F88C4935
:1011300006A803F004F806A802F0E2FFC6B23146A2
:1011400006A8FFF776FF0EB070BDF0B503460C465B
:101150000021002000BF33E0655C1A2D08D1EF2785
:101160000546401C5F55EA270546401C5F5526E0B2
:10117000655CEF2D07D1EF270546401C5F550546FE
:10118000401C5F551BE0655C1B2D08D1EF27054611
:10119000401C5F55EB270546401C5F550FE0655C22
:1011A000032D08D1EF270546401C5F55E327054670
:1011B000401C5F5503E0675C0546401C5F55491CB9
:1011C0009142C9DBF0BD2DE9F041ADF5C16D054699
:1011D0000E4640F2DC510BA803F034F81A200A90B6
:1011E000282261A1684602F0FBFF684602F088FFF2
:1011F000C7B24FF00008002403E000200BA90855F7
:10120000641C40F2DC508442F7D339466846FFF74D
:1012100010FF4FF4FA6001F00EF8B2B229460BA8A5
:10122000FFF793FF00F0FF0841460BA801F01BF900
:1012300001210AA8FFF7FDFE0DF5C16DBDE8F081A3
:101240001FB553A30FCB8DE80F00684602F058FF7F
:10125000C4B221466846FFF7ECFE1FBD1FB550A380
:101260000FCB8DE80F00684602F04AFFC4B221465A
:101270006846FFF7DEFE1FBDF0B504460B460021B1
:10128000002000BF3CE05D5CEF2D34D14D1C5D5D66
:10129000EA2D0BD04D1C5D5DEF2D07D04D1C5D5D23
:1012A000EB2D03D04D1C5D5DE32D24D14D1C5D5D08
:1012B000EA2D04D11A270546401C675519E04D1C3C
:1012C0005D5DEF2D04D1EF270546401C675510E00A
:1012D0004D1C5D5DEB2D04D11B270546401C675559
:1012E00007E04D1C5D5DE32D03D103270546401C3F
:1012F0006755491C03E05F5C0646401CA755491C26
:10130000551E8D42BFD85F5D0546401C6755F0BD38
:10131000256300000D0A000041542B4347415454FB
:101320003F00000041542B435354543D22434D4E43
:101330004554220041542B434949435200000000C8
:1013400041542B43494653520000000041542B4363
:10135000495053544152543D22554450222C2200AE
:10136000014500080345000841542B4349505345AB
:101370004E443D302C2C223133392E3135392E322A
:1013800032302E313338222C34353636000000000E
:1013900041542B434950434C4F53453D31000000CD
:1013A00041542B434950534855543D3100000000EF
:1013B00070B502460C46FF25FF2309E012F8010B29
:1013C00080EA03010648405C80EA05030548455C65
:1013D0002000A4F10106B4B2F0D143EA052070BDAB
:1013E000054500080546000870B504460D46002670
:1013F0002946204602F046FE0646304670BD70B5CE
:1014000005460E46344622462946E94802F0A3FE28
:101410002146E74801F027F80221E6A001F023F871
:101420002346E34AE4A1022001F0CDF870BD38B5AF
:10143000E3A000680090684602F062FEC4B2214654
:101440006846FFF7DCFF38BD3EB5DEA207CA8DE86F
:101450000700684602F054FEC4B221466846FFF712
:10146000CEFF3EBD1CB5DAA103C9CDE90001684637
:1014700002F046FEC4B221466846FFF7C0FF1CBD1D
:101480003EB5D5A207CA8DE80700684602F038FECF
:10149000C4B221466846FFF7B2FF3EBD1FB5D1A3D7
:1014A0000FCB8DE80F00684602F02AFEC4B2214639
:1014B0006846FFF7A4FF1FBD3EB5CEA207CA8DE860
:1014C0000700684602F01CFEC4B221466846FFF7DA
:1014D00096FF3EBD3EB5CAA207CA8DE80700684622
:1014E00002F00EFEC4B221466846FFF788FF3EBDFB
:1014F00030B589B004462022C4A101A802F070FED4
:1015000001A802F0FDFDC5B224B1012C08D0022CC7
:1015100012D10BE02A46BDA101A802F061FE0CE049
:101520002A46C2A101A802F05BFE06E02A46C7A136
:1015300001A802F055FE00E000BF00BF294601A847
:10154000FFF75DFF09B030BD1FB5C8A30FCB8DE815
:101550000F00684602F0D4FDC4B221466846FFF78A
:101560004EFF1FBD1FB5C5A30FCB8DE80F0068460A
:1015700002F0C6FDC4B221466846FFF740FF1FBD1A
:101580003EB5C2A207CA8DE80700684602F0B8FD62
:10159000C4B221466846FFF732FF3EBD3EB5BEA24B
:1015A00007CA8DE80700684602F0AAFDC4B22146CA
:1015B0006846FFF724FF3EBDF0B591B004460E46E5
:1015C0001546342104A802F03DFEB6A30FCB8DE8EA
:1015D0000F00684602F094FD07463A46694604A8A3
:1015E00002F0FEFD14B1012C3AD118E0B1A104A81B
:1015F00002F0A5FDB04904A802F0A1FDAF4904A87E
:1016000002F09DFDAD4904A802F099FDAB4904A884
:1016100002F095FD294604A802F091FD21E0A8A161
:1016200004A802F08CFDA44904A802F088FDA34997
:1016300004A802F084FDA04904A802F080FD314610
:1016400004A802F07CFD9C4904A802F078FD9B49A7
:1016500004A802F074FD294604A802F070FD00E021
:1016600000BF00BF04A802F04BFDC7B2394604A872
:10167000FFF7C5FE11B0F0BD2DE9FF4105460E464E
:1016800090A30FCB8DE80F00684602F039FD00F003
:10169000FF08002404E000208E490855601CC4B2F5
:1016A000322CF8DB684602F02BFD07463A466946C5
:1016B000884802F050FD2946864802F040FD7E49E8
:1016C000844802F03CFD7D49824802F038FD3146F5
:1016D000804802F034FD7F4802F012FDC7B239465F
:1016E0007C48FFF78CFEBDE8FF81F0B503460C4651
:1016F0000021002000BF33E0655C1A2D08D1EF27E0
:101700000546401C5F55EA270546401C5F5526E00C
:10171000655CEF2D07D1EF270546401C5F55054658
:10172000401C5F551BE0655C1B2D08D1EF2705466B
:10173000401C5F55EB270546401C5F550FE0655C7C
:10174000032D08D1EF270546401C5F55E3270546CA
:10175000401C5F5503E0675C0546401C5F55491C13
:101760009142C9DBF0BDF8B505460E461A2000903F
:101770000027002404E0002057490855601CC4B22B
:10178000C82CF8DBB2B229465348FFF7AEFFC7B208
:101790003946514800F067FE3B464F4A06A10220F9
:1017A00000F011FF01216846FFF729FEF8BD000097
:1017B0004F0C00200D0A0000475052532D3E0000F0
:1017C0004154000041542B4350494E3F000000005B
:1017D00041542B435351000041542B43475245473A
:1017E0003F00000041542B53494D434F4D41544954
:1017F0000000000041542B434E4D503F00000000BC
:1018000041542B435053493F0000000041542B43A7
:1018100047534F434B434F4E543D312C22495022A6
:101820002C22434D4E4554220000000041542B43CE
:1018300047534F434B434F4E543D312C2249502286
:101840002C2233474E4554220000000041542B43C4
:1018500047534F434B434F4E543D312C2249502266
:101860002C2243544E4554220000000041542B4387
:10187000534F434B534554504E3D310041542B433D
:1018800049504D4F44453D300000000041542B4E1F
:1018900045544F50454E000041542B49504144445B
:1018A0005200000041542B4349504F50454E3D30AB
:1018B0002C22000055445000054700080747000847
:1018C0005443500041542B43495053454E443D30FE
:1018D0002C2C22008F0C0020C10C0020F0B589B008
:1018E0000025002008902021684602F0ABFC00246F
:1018F00018E0FFF79CFD4FF4FA7000F09CFC08A87C
:1019000000F0C5FD0746F8A1FFF76EFD054600F0A3
:10191000C4FD05B108E0022C02DB012009B0F0BDD6
:10192000601CC4B2032CE4DB00BF002417E0FFF707
:101930008BFD4FF4FA7000F07EFC08A800F0A7FDC4
:101940000746EAA1FFF750FD054600F0A6FD05B1E8
:1019500007E0022C01DB0120E0E7601CC4B2032C8D
:10196000E5DB00BF002417E0FFF77CFD4FF4FA70C1
:1019700000F061FC08A800F08AFD0746DDA1FFF732
:1019800033FD054600F089FD05B107E0022C01DBBF
:101990000120C3E7601CC4B2032CE5DB00BF0024B8
:1019A00017E0FFF76DFD4FF4FA7000F044FC08A853
:1019B00000F06DFD0746D1A1FFF716FD054600F0CA
:1019C0006CFD05B107E0022C01DB0120A6E7601CDD
:1019D000C4B2032CE5DB00BFFFF760FD4FF4FA70E3
:1019E00000F029FC08A800F052FD0746BEA1FFF751
:1019F000FBFC054600F051FD002417E0FFF75CFDFD
:101A00004FF4FA7000F017FC08A800F040FD0746FC
:101A1000BDA1FFF7E9FC054600F03FFD05B107E079
:101A2000022C01DB012079E7601CC4B2032CE5DB4A
:101A300000BF002417E0FFF74DFD4FF4FA7000F0EF
:101A4000FAFB08A800F023FD0746B1A1FFF7CCFC84
:101A5000054600F022FD05B107E0022C01DB012064
:101A60005CE7601CC4B2032CE5DB00BF00241CE073
:101A70000020A949087008460078FFF739FD4FF4A7
:101A8000FA7000F0D8FB08A800F001FD074696A107
:101A9000FFF7AAFC054600F000FD05B107E0022CA7
:101AA00001DB01203AE7601CC4B2032CE0DB00BF7D
:101AB000002417E0FFF748FD4FF4FA7000F0BBFB7D
:101AC00008A800F0E4FC074687A1FFF78DFC054657
:101AD00000F0E3FC05B107E0022C01DB01201DE76B
:101AE000601CC4B2032CE5DB00BF002417E0FFF745
:101AF00039FD4FF4FA7000F09EFB08A800F0C7FC17
:101B0000074679A1FFF770FC054600F0C6FC05B159
:101B100007E0022C01DB012000E7601CC4B2032CAB
:101B2000E5DB00BF002434E0FFF72AFD4FF4FA7034
:101B300000F081FB08A800F0AAFC07463946684679
:101B4000089A02F008FB002610E01DF806002B287A
:101B50000AD10DEB06000B2270A102F0A5FA18B90C
:101B600001207149087004E0701CC6B208988642D2
:101B7000EBD300BF00F091FC6B48007818B1002057
:101B80006949087007E0022C01DB0120C6E6601CF1
:101B9000C4B2032CC8DB00BF002417E0FFF762FCCF
:101BA0004FF4FA7000F047FB08A800F070FC0746FD
:101BB00050A1FFF719FC054600F06FFC05B107E0E6
:101BC000022C01DB0120A9E6601CC4B2032CE5DB7A
:101BD00000BF002417E0FFF7E1FC4FF4FA7000F0BB
:101BE0002AFB08A800F053FC074650A1FFF7FCFBB6
:101BF000054600F052FC05B107E0022C01DB012094
:101C00008CE6601CC4B2032CE5DB00BF00243BE083
:101C1000002048490870484A484946480078FFF77C
:101C2000CBFC4FF4FA7000F006FB08A800F02FFC84
:101C3000074639466846089A02F08DFA002610E0F9
:101C40001DF806002B280AD10DEB06000D223CA141
:101C500002F02AFA18B901203349087004E0701C18
:101C6000C6B208988642EBD300BF00F016FC2E489F
:101C7000007818B100202C49087007E0022C01DB25
:101C800001204BE6601CC4B2032CC1DB00BF002066
:101C900044E670B502460D460023002400260021CC
:101CA0000AE0081D105C0D2805D1481D105C0A28AB
:101CB00001D10B4602E0491C0A29F2D300BF13B937
:101CC0000026002070BD002107E004EB84004400E2
:101CD000081D105C30380444491C9942F5D3101D8E
:101CE000C6182C60B01CEDE74F4B00005245414434
:101CF000590000002B4353513A0000002B43475238
:101D000045473A20302C31002B434E4D5000000007
:101D10002B43505349000000300000202B4E455407
:101D20004F50454E3A203000320000202B495041A0
:101D30004444520031000020094700080E470008C3
:101D40002B4349504F50454E3A20302C3000000074
:101D5000F0B504460E461546002115E0605C2F786C
:101D6000B84210D101220BE08818205CAF5CB84269
:101D700000D007E0581E904201D16018F0BD521CFF
:101D80009A42F1D300BF491CF01A8842E6D80020DD
:101D9000F4E72DE9FF5F8046894600260027B2461A
:101DA000002003900290012001904FF0000B774833
:101DB000007840B94FF480627549764800F006F922
:101DC000012072490870002452E073497348FFF7FC
:101DD00053FC4FF4FA7000F02EFA02A800F057FB03
:101DE0006FA10090FFF700FB0646002E37D1029846
:101DF000002834D0002503E000206B4948556D1CB5
:101E0000B5F5806FF8D302A800F041FBF0B102A84D
:101E100000F03DFB009001466348029A02F09BF9F6
:101E2000002508E06048405D3E2803D101205F495D
:101E3000087003E06D1C02988542F3D300BF5B4835
:101E4000007818B100205949087013E04FF0000BDA
:101E500057A0039902F044F800F01FFB07E000F0E0
:101E60001CFB022C03D3012004B0BDE8F09F641CCE
:101E7000032CAAD300BF00F010FB012001904946BB
:101E80004046FFF770FC002404E04FF47A7000F045
:101E9000D2F9641C022CF8D302A800F0F8FA064626
:101EA000002421E0305D4F2805D1601C305C4B28B8
:101EB00001D10020019006EB0B00042340A20299FF
:101EC000FFF746FF074677B103A93846FFF7E1FE63
:101ED000824651462F48039A00F0A8F8B81B00F13B
:101EE000010B0027BA46641C02988442DAD34FF0F3
:101EF000000B0020039000F0D0FA0198B4E708B579
:101F00003820ADF8000010208DF8030003208DF874
:101F1000020069462C4800F075FF2020ADF8000053
:101F200010208DF8030003208DF802006946264832
:101F300000F068FF01222021234801F014F800225C
:101F40001021214801F00FF8002208211E4801F05D
:101F50000AF808BD10B5FFF7D2FF10BD10B5012279
:101F60002021194800F0FFFF10BD10B500222021EC
:101F7000154800F0F8FF10BD10B5FFF7F6FF4FF45D
:101F8000FA7000F058F9FFF7E9FF10BD34000020A7
:101F9000141C0020001C0020094700080E47000800
:101FA0004552524F52000000142000203300002000
:101FB0007265635F6E756D313D25640D0A0000002A
:101FC0002B49504400000000000C01400160002338
:101FD00043608360C360026170470146C86808B906
:101FE000012070470020FCE7002141608160C16052
:101FF00070470146D1E90320904201D1012070478A
:102000000020FCE710B503460C461846FFF7F1FF29
:1020100050B9D3E90310401AA04203D2D3E9031008
:10202000401A10BD2046FCE70020FAE72DE9F041F8
:1020300004460E461746002539462046FFF7E2FFC4
:10204000054665B3A06828442169884207D8A2687C
:10205000216888182A46314602F07DF814E0A3680A
:102060002169CA1A2168C818314602F074F8D4F8F8
:1020700008C02369A3EB0C03EA1A2369A3EB0C0342
:102080009919206802F067F8A06828442169B0FB1C
:10209000F1F201FB1200A060E0682844E0602846ED
:1020A000BDE8F0812DE9F04104460E4617460025B3
:1020B0002046FFF792FF10B10020BDE8F081E068F4
:1020C000B84201D2E56800E03D46606828442169D5
:1020D000884207D8D4E9000281182A46304602F027
:1020E0003AF814E063682069C21A2068C1183046C3
:1020F00002F031F8D4F804C02369A3EB0C03EA1A08
:1021000023693344A3EB0C00216802F024F86068D3
:1021100028442169B0FBF1F201FB12006060E06825
:10212000401BE0602846C8E70146C8687047014682
:10213000086970472DE9F05F0446894617469A46BC
:10214000DDE90AB6002514B9681EBDE8F09F2546F2
:102150007E2028700E20687085F80290EF70380A93
:102160002871301D6871000AA871DAF80000C5F8FE
:102170000700BBF1000F06D02EB13246594605F1DB
:102180000B0001F0E8FF06F10A0081B2601CFFF7C6
:102190000FF9804605F10B0000F806804FEA18227F
:1021A000711C42547F22B11C425406F10E000249B8
:1021B000088008460088C8E73600002010B56FF098
:1021C000040000F0A0FD2E4800682E49B0FBF1F09D
:1021D0002D4908700846007800EB4001C1EBC010A3
:1021E0004FF6FF7101EAC0002849088010BD014682
:1021F000254A12784A434FF0E0235A6100229A613F
:102200001A46126942F001021A6100BF4FF0E02243
:10221000106900F001021AB100F48032002AF5D0F2
:102220004FF0E022126922F001024FF0E0231A6120
:1022300000229A6170470146144A12884A434FF0BF
:10224000E0235A6100229A611A46126942F00102A3
:102250001A6100BF4FF0E022106900F001021AB1CC
:1022600000F48032002AF5D04FF0E022126922F00B
:1022700001024FF0E0231A6100229A6170470000CA
:102280001C00002000127A00380000203A000020D4
:10229000014600BF704700BF9E4A128802F040020C
:1022A000002AF9D0C2B29B4B1B1D1A80704710B593
:1022B00040F22551974801F085FA88B1954801F020
:1022C00001FAC4B294480088B0F5806F08DA9348E8
:1022D00091490988445490480088401C8E490880E0
:1022E00010BD10B586B00446012144F2040001F08F
:1022F00045F84FF40070ADF8140003208DF8160077
:1023000018208DF8170005A9854800F07BFD4FF4D3
:102310008060ADF8140004208DF8170005A98048EE
:1023200000F070FD01940020ADF80800ADF80A003F
:10233000ADF80C00ADF810000C20ADF80E0001A9AE
:10234000744801F0C2F825208DF8000003208DF8B4
:1023500001008DF8020001208DF80300684600F0AE
:1023600088FC012240F225516A4801F046F901211A
:10237000684801F036F906B010BD10B586B00446C5
:102380000121C80401F007F80121102000F0F6FF38
:102390004FF48060ADF8140003208DF8160018206B
:1023A0008DF8170005A95F4800F02CFD4FF4006080
:1023B000ADF8140004208DF8170005A9594800F065
:1023C00021FD01940020ADF80800ADF80A00ADF839
:1023D0000C00ADF810000C20ADF80E0001A9524819
:1023E00001F073F834208DF8000003208DF801000F
:1023F00002208DF8020001208DF80300684600F0ED
:1024000038FC012240F22551474801F0F6F801213D
:10241000454801F0E6F806B010BD10B50821424865
:1024200001F0BAF930B108213F4801F0C2F93E4845
:1024300001F048F940F225513B4801F0C3F978B169
:102440003A480068B0F5806F0AD2374801F03AF98F
:10245000C1B236480468601C344A106034480155E3
:1024600010BD8180704710B5024600200CE000BF0F
:102470002D4B1B8803F04003002BF9D0135C2A4C32
:10248000241D2380431CD8B28842F0DB10BD0146D6
:102490002648006808602648704710B5234803683E
:1024A000234A24A1022000F08EF8002403E000203B
:1024B0001F490855641CB4F5806FF8D300201B49F0
:1024C000086010BD00BF1349098801F08001002990
:1024D000F9D0C0F308010F4A121D1180704700BFE8
:1024E0000C48008800F020000028F9D00948001DA1
:1024F0000088C0F30800704700BF0649098801F052
:1025000080010029F9D0C0F30801024A121D118090
:1025100070470000003801404200002000100020F9
:102520000008014000100140004C00404400002021
:1025300014240020475052533C2D0000F0B50346B0
:102540001C460D46002000BF1600A2F1010207D074
:1025500014F8017B15F801CBA7EB0C063000F3D083
:10256000F0BD2DE9F04106460F460EE016F8010BCE
:1025700001F0A6FCC4B217F8010B01F0A1FCC5B232
:10258000AC4201D104B105B900E0EFE700BF601B28
:10259000BDE8F081544870470FB438B50446E0B246
:1025A0005149097888420BDC4F480078142807D03D
:1025B00006A800900099059800F0EAF80020009025
:1025C00038BC5DF814FB2DE9F84F814688469246E9
:1025D0001E464548007881457BDC43480078142836
:1025E00077D05746B8F1000F04D0324641463FA09D
:1025F00000F0D7F9002434E0385D00903EA0009947
:1026000000F0CFF9E11704EB11710911A4EB0111EE
:102610000F2925D13AA000F0C4F924F00F0510E0ED
:1026200001F046FC0068795D405C00F03E0008B1B6
:10263000785D00E02E208346594632A000F0B1F9C3
:102640006D1CA542ECDD30A000F0ABF9B8F1000F35
:1026500006D0601CB04203DA2CA12DA000F0A1F935
:10266000641CB442C8DBE11704EB11710911A4EB3F
:10267000011149B3254603E027A000F092F96D1C33
:10268000E91705EB11710911A5EB01110029F3D12F
:102690001BA000F086F924F00F0510E001F008FC03
:1026A0000068795D405C00F03E0008B1785D00E0B4
:1026B0002E208346594613A000F073F96D1CA542E5
:1026C000ECDB11A000F06DF916B90FA000F069F96C
:1026D00000BF0020BDE8F88F10B5044621460FA0CA
:1026E00000F05FF910BD000048000020252D357373
:1026F000252D34643A0000002025303258000000B7
:10270000203B0000256300000D0A000000000000CF
:10271000252D39733A000000202020002E2564006A
:1027200010B504460A2C02D10D20FFF7F9FFF84836
:10273000006840B1F64800680470F5480068401C25
:10274000F349086010BDF348006818B12046F1490C
:102750000968884700BFF5E710B5044603E014F8A0
:10276000010BFFF7DDFF20780028F8D110BD70B510
:1027700005460C46E7480668056003E014F8010BBF
:10278000FFF7CEFF20780028F8D1E248066070BD40
:102790002DE9F34F8BB0054600BF15F8014B04B986
:1027A000FBE0252C03D02046FFF7BAFFF5E7002712
:1027B00015F8014B302C03D1012715F8014B04E02B
:1027C0002D2C02D1022715F8014B4FF0000A07E02B
:1027D0000AEB8A0004EB4000A0F1300A15F8014B27
:1027E000302C01DB392CF3DD6C2C01D04C2C03D1C7
:1027F00047F0040715F8014B04B9CEE02646612ED8
:1028000002DBA6F12000C6B24F2E42D006DC422EDB
:102810003CD0432E32D0442E45D13DE0532E04D03F
:10282000552E3AD0582E3ED13AE00C9800680190CF
:102830000C98001D0C904FF0000901E009F101090E
:10284000019810F809000028F8D102E02020FFF7D5
:1028500067FF07F0020020B9484609F10109504519
:10286000F4D30198FFF778FF02E02020FFF758FF2C
:10287000484609F101095045F7D38EE70C9911F844
:10288000042BD0B20C91FFF74BFF86E702200A9091
:102890000DE008200A900AE000BF0A200A9006E036
:1028A00010200A9003E02046FFF73AFF75E700BFCB
:1028B00007F0040028B10C9800680C99091D0C91D0
:1028C0000CE0442E05D10C9800680C99091D0C9160
:1028D00004E00C9800680C99091D0C918346442E65
:1028E00006D10BF0004018B1CBF1000B47F0080700
:1028F0004FF0000800BF0A98BBFBF0F100FB11B0DD
:10290000C6B20A98BBFBF0FB092E06DD782C01D17C
:10291000272000E007203044C6B206F13000C2B2E2
:10292000404608F1010802A90A54BBF1000F02D089
:10293000B8F1200FDFD307F0080028B12D22404660
:1029400008F1010802A90A54C14607F0010008B1C4
:10295000302000E02020064602E03046FFF7E0FE8F
:1029600007F0020020B9484609F101095045F4D3A7
:1029700000BFA8F10101884602AA505CFFF7D0FE13
:10298000B8F1000FF5D102E02020FFF7C9FE48465C
:1029900009F101095045F7D3FFE600BF0DB0BDE8CE
:1029A000F08F0FB408B503A8009000990298FFF7C4
:1029B000EFFE0020009001B05DF814FB0FB438B5B5
:1029C00004465348046006A8009000990598FFF754
:1029D000DFFE002000904E49096808704C490860ED
:1029E00038BC5DF814FB0FB438B504464948056897
:1029F000046006A8009000990598FFF7C9FE002022
:102A000000904448056038BC5DF814FB2DE9F05F88
:102A100007468B4615469A4659463FA0FFF7C1FF29
:102A2000BAF1010F06D0BAF1020F22D0BAF1040FA9
:102A300035D129E03E46002404E0315D38A0FFF79F
:102A4000B0FF641CAC42F8DB2020FFF769FE0024D5
:102A50000CE0315D202904DB315D7E2901DC315D34
:102A600000E02E210846FFF75BFE641CAC42F0DB61
:102A700015E0B84600BF38F8021B2BA0FFF791FF06
:102A8000681E0500F7D10AE0B94600BF59F8041BDB
:102A900027A0FFF786FF681E0500F7D100BF00BF23
:102AA0000A20FFF73DFEBDE8F09F2DE9F041064604
:102AB0000F462148006810B90020BDE8F0810025CC
:102AC00000BF1D480068804704460CB90020F4E7A9
:102AD0000D2C00D113E0082C05D125B16D1EE0B2FC
:102AE000FFF71EFEEDE7202C08DB781EA84205DD6F
:102AF00028466D1C3454E0B2FFF712FEE1E700BF38
:102B0000002070550A20FFF70BFE0120D5E70000DA
:102B1000500000204C0000202530386C5820000068
:102B200020253032580000002025303458000000A5
:102B3000202530384C580000540000202DE9F04189
:102B400004460D4616463748076804603146284655
:102B5000FFF7ABFF8046334807604046BDE8F08191
:102B600070B502460D4600260020286002E010687D
:102B7000401C1060106801782029F8D02D2904D15C
:102B800001261068401C10600178302920D110689F
:102B9000401C10600178622907D078290BD11023DE
:102BA0001068401C1060017811E002231068401C7E
:102BB000106001780BE0202901DC012070BD302974
:102BC00001DB392901DD0020F8E7082300BF06E01A
:102BD000302901DB392901DD0020EFE70A23002439
:102BE00019E0612902DBA1F12000C1B2A1F130009E
:102BF000C1B2112905DBC81FC1B2092901DC0020BF
:102C0000DCE7994201DB0020D8E704FB03141068DD
:102C1000401C106001782029E3DC06B164422C607E
:102C20000120CBE7540000200948804709480047AD
:102C3000FEE7FEE7FEE7FEE7FEE7FEE7FEE7FEE76C
:102C4000FEE7FEE704480549054A064B70470000C9
:102C5000430D000831010008F00D00201834002059
:102C6000F00F00201830002031490143314A116033
:102C7000704770B5002100230F22C47804B32D4C97
:102C8000246804F4E064C4F5E064210AC1F104039B
:102C9000CA40447804FA03F18478144021430901BE
:102CA000254C0678A155047804F01F050124AC409A
:102CB00005786D11AD0005F1E025C5F8004109E08A
:102CC000047804F01F050124AC401C4D06787611F1
:102CD00045F8264070BD1A4A0A400243154B1B1F97
:102CE0001A60704739B1134A121D12680243114B22
:102CF0001B1D1A6006E00F4A121D126882430D4B1D
:102D00001B1D1A607047042808D14FF0E0210969A3
:102D100041F004014FF0E022116107E04FF0E021A3
:102D2000096921F004014FF0E022116170470000B1
:102D30000000FA050CED00E000E400E080E100E0B6
:102D400080FFFF1F10B50446CC48844208D1012102
:102D5000042000F02DFB0021042000F029FB46E0B8
:102D6000C748844208D10121082000F021FB00213E
:102D7000082000F01DFB3AE0C248844208D101213E
:102D8000102000F015FB0021102000F011FB2EE0B8
:102D9000BD48844208D10121202000F009FB002118
:102DA000202000F005FB22E0B848844208D1012130
:102DB000402000F0FDFA0021402000F0F9FA16E072
:102DC000B348844208D10121802000F0F1FA0021AB
:102DD000802000F0EDFA0AE0AE48844207D10121DC
:102DE000801500F0E5FA0021A01500F0E1FA10BD11
:102DF00010B50121084600F0DBFA0021012000F0A7
:102E0000D7FA10BD2DE9F04102460025002600202A
:102E100000230024002791F803C00CF00F0591F85F
:102E200003C00CF0100CBCF1000F03D091F802C0ED
:102E30004CEA050591F800C0BCF1000F31D01468D0
:102E400000202BE04FF0010C0CFA00F3B1F800C0A9
:102E50000CEA03069E4220D183004FF00F0C0CFABF
:102E600003F7BC4305FA03FC4CEA040491F803C0E1
:102E7000BCF1280F06D14FF0010C0CFA00FCC2F88F
:102E800014C00AE091F803C0BCF1480F05D14FF01F
:102E9000010C0CFA00FCC2F810C0401C0828D1D369
:102EA0001460B1F800C0BCF1FF0F34DD546800209D
:102EB0002EE000F1080C4FF0010808FA0CF3B1F80D
:102EC00000C00CEA03069E4221D183004FF00F0C94
:102ED0000CFA03F7BC4305FA03FC4CEA040491F82E
:102EE00003C0BCF1280F05D100F1080C08FA0CF85A
:102EF000C2F8148091F803C0BCF1480F07D100F16B
:102F0000080C4FF0010808FA0CF8C2F81080401CB9
:102F10000828CED35460BDE8F0814FF6FF710180E0
:102F2000022181700421C17070470246002093681D
:102F30000B400BB1012000E000207047014688687B
:102F400080B2704702460020D3680B400BB10120CD
:102F500000E0002070470146C86880B270470161F8
:102F60007047416170470AB1016100E041617047FB
:102F7000C16070474FF480320A438261816182618F
:102F800082698269704702460020434B18684FF6F9
:102F90008073184040EA021008433F4B18607047A6
:102FA0003E49C8617047F0B50A460023002400215D
:102FB000002500F00046B6F1004F02D1364EF1690F
:102FC00001E0354E7168C0F3034583B200F440164A
:102FD000B6F5401F08D121F070612F4E766826F0BB
:102FE00070662D4F7E6012E000F48016B6F5801FEB
:102FF00006D1032606FA05F4A14341F0706106E00C
:10300000460D360103FA06F6B14341F0706122B174
:10301000460D360103FA06F6314300F00046B6F1DC
:10302000004F02D11C4EF16101E01B4E7160F0BDFA
:1030300030B500228B071C0F0F2303FA04F2164B46
:1030400008338C1053F824309343134C08348D10FC
:1030500044F8253023468C1053F824308C07240F75
:1030600000FA04F423430C4C08348D1044F8253046
:1030700030BD0A49DC31086070470000000801409B
:10308000000C0140001001400014014000180140F4
:10309000001C0140002001400000014000002042CF
:1030A000DF48006840F00100DD49086008464068DC
:1030B000DC490840DA49486008460068DA490840B7
:1030C000D74908600846006820F480200860084658
:1030D000406820F4FE0048604FF41F00886070478D
:1030E000CF49096821F48031CD4A11601146096841
:1030F00021F480211160B0F5803F03D0B0F5802F1E
:103100000ED106E0C649096841F48031C44A116015
:1031100007E0C349096841F4A021C14A116000E0F9
:1031200000BF00BF704710B50146002200230020F9
:103130004A11012A02D1BA4C236806E0022A02D1C0
:10314000B74C236A01E0B64C636A01F01F02012408
:1031500094401C400CB1012000E0002010BD38B5A7
:10316000002000900024002500BF3120FFF7DBFF86
:1031700005460098401C00900098B0F5A06F01D063
:10318000002DF2D03120FFF7CEFF08B1012400E07E
:103190000024204638BD01460020A14A106820F0D6
:1031A000F80040EAC10010607047A049086070470D
:1031B000024600209A4B586820F47C1042EA010332
:1031C0001843974B58607047984908667047014606
:1031D0000020934A506820F0030008435060704775
:1031E0008F48406800F00C007047014600208C4A70
:1031F000506820F0F00008435060704701460020FE
:10320000874A506820F4E0600843506070470146E8
:103210000020834A506820F4605040EAC1005060AA
:10322000704729B17E4A527A02437D4B5A7204E0BC
:103230007B4A527A82437A4B5A7270477B49D83123
:103240000860704701460020754A506820F44040ED
:103250000843506070470021714A20321170704A53
:1032600082F82010012802D004280AD104E00121AC
:103270006B4A2032117005E00521694A2032117035
:1032800000E000BF00BF70476949086070476449AB
:10329000096A0143624A116270476549443908600E
:1032A000704730B500210022002400235C4D6D687A
:1032B00005F00C0121B1042905D0082923D105E02E
:1032C0005C4D056022E05B4D05601FE0544D6D686C
:1032D00005F47012524D6D6805F48034022505EB3B
:1032E00092421CB9544D554305600BE04C4D6D683E
:1032F00005F400351DB1504D5543056002E04D4DBC
:103300005543056002E04B4D056000BF00BF444DD2
:103310006D6805F0F0010909484D6B5C0568DD40FA
:1033200045603F4D6D6805F4E061090A434D6B5CF3
:103330004568DD4085603A4D6D6805F46051C90A05
:103340003E4D6B5C4568DD40C560354D6D6805F4EC
:103350004041890B3A4D6B5CC568B5FBF3F50561DF
:1033600030BD29B12E4A526902432D4B5A6104E007
:103370002B4A526982432A4B5A61704729B1284A25
:1033800092690243264B9A6104E0254A926982437E
:10339000234B9A61704729B1214AD2690243204BDD
:1033A000DA6104E01E4AD26982431D4BDA6170473C
:1033B00029B11B4AD2680243194BDA6004E0184A6B
:1033C000D2688243164BDA60704729B1144A1269F9
:1033D0000243134B1A6104E0114A12698243104BF5
:1033E0001A61704712494039086070470F49C86434
:1033F00070470B49C87170470948406A40F08070B7
:1034000007494862704701460020054A92680A4011
:103410000AB1012000E0002070470149887270471E
:10342000001002400000FFF8FFFFF6FE00004242DD
:103430008004424200127A0000093D00580000203A
:103440006800002010B50446FB48844209D10121E0
:103450008803FFF7ADFF00214FF48040FFF7A8FF7E
:1034600032E0F648844209D101214804FFF7ADFF5C
:1034700000214FF40030FFF7A8FF25E0F048844218
:1034800009D101218804FFF7A0FF00214FF480201B
:10349000FFF79BFF18E0EB48844209D10121C804E3
:1034A000FFF793FF00214FF40020FFF78EFF0BE0A2
:1034B000E548844208D101210805FFF786FF002175
:1034C0004FF48010FFF781FF10BD2DE9F04786B063
:1034D00005460E460024A24600BFA1460027B0893B
:1034E00000B100BF2F462C8A4CF6FF700440F088D4
:1034F00004432C82AC894EF6F3100440B088318925
:103500000843718908430443AC81AC8A4FF6FF40FD
:103510000440B0890443AC8201A8FFF7C2FEC6484C
:10352000874202D1DDF810A001E0DDF80CA0A889E7
:1035300000F4004040B10AEBCA0000EB0A10316809
:103540004900B0FBF1F807E00AEBCA0000EB0A10F3
:1035500031688900B0FBF1F86420B8FBF0F0040199
:103560002009642101FB1089A88900F4004040B1C2
:10357000322000EBC900B0FBF1F000F0070004437B
:1035800008E0322000EB09106421B0FBF1F000F0FC
:103590000F0004432C8106B0BDE8F0874FF41651AC
:1035A000016000218180C18001810C2141810021C5
:1035B0008181704710B502460020108A4FF2FF0348
:1035C00018400B884C8823438C882343CC882343A2
:1035D0001843108210BD0021018041808180C1808C
:1035E000704721B1828942F40052828104E08289CD
:1035F0004DF6FF731A4082817047F0B503460024F0
:1036000000260025002040F66A17B94200D100BF0D
:103610001846C1F3421401F01F06012707FA06F508
:10362000012C01D10C3004E0022C01D1103000E05B
:1036300014301AB107682F43076002E00768AF43F0
:103640000760F0BD1AB1838A0B43838202E0838A4C
:103650008B4383827047028A4FF6F0731A400282CE
:10366000028A0A430282704782894FF2FF731A402E
:10367000828182890A438281704721B1828942F026
:103680000202828104E082894FF6FD731A40828132
:103690007047028A4FF6DF731A400282028A0A4399
:1036A0000282704721B1028A42F48042028204E021
:1036B000028A4BF6FF731A4002827047C1F3080278
:1036C0008280704701468888C0F30800704781896E
:1036D00041F0010181817047028BD2B20283028BDB
:1036E00042EA012202837047028B02F47F42028386
:1036F000028B0A430283704721B1828A42F0200282
:10370000828204E0828A4FF6DF731A408282704719
:1037100021B1828A42F01002828204E0828A4FF64E
:10372000EF731A408282704721B1828A42F0080208
:10373000828204E0828A4FF6F7731A4082827047D1
:1037400021B1828942F40042828103E08289C2F37E
:103750000E028281704721B1828A42F40062828225
:1037600004E0828A4FF2FF731A4082827047828A95
:103770004FF6FB731A408282828A0A438282704724
:1037800021B1828A42F00202828204E0828A4FF6EC
:10379000FD731A408282704702460020B1F5007F17
:1037A00000D100BF13880B400BB1012000E00020C6
:1037B000704701F40072B2F5007F00D100BFCA4328
:1037C0000280704770B502460024002300250020C7
:1037D00040F66A16B14200D100BFC1F3421501F0B4
:1037E0001F03012606FA03F3012D02D19689334007
:1037F00006E0022D02D1168A334001E0968A33405A
:103800000C12012606FA04F41688344013B10CB1E8
:10381000012000E0002070BD10B50022002340F61A
:103820006A14A14200D100BF0A1201249440A3B23D
:10383000DC43048010BD000000380140004400401B
:1038400000480040004C004000500040014600206D
:10385000FE4A106800F03800084310607047FB49CA
:10386000096821F00801F94A11601146096801430D
:1038700011607047F549096821F01001F34A1160A1
:1038800011460968014311607047F148EF494860EB
:10389000F04848607047EE48EC494860ED484860A1
:1038A0007047EA48006940F08000E84908617047C5
:1038B000E648006940F08000E44908617047042050
:1038C000E249C96801F0010109B101200EE0DF49B8
:1038D000C96801F0040109B1022007E0DB49C968A9
:1038E00001F0100109B1032000E00420704700B589
:1038F00002460423FFF7E3FF034603E0FFF7DFFF81
:103900000346521E012B01D1002AF7D102B905232B
:10391000184600BD30B5044604254FF43020FFF7AB
:10392000E6FF0546042D17D1C848006940F00200A3
:10393000C649086108464461006940F040000861DA
:103940004FF43020FFF7D3FF0546C048006941F629
:10395000FD710840BD490861284630BD10B50424FA
:103960004FF43020FFF7C3FF0446042C16D1B748AC
:10397000006940F00400B54908610846006940F05C
:10398000400008614FF43020FFF7B1FF0446AF4814
:10399000006941F6FB710840AC490861204610BD42
:1039A00000B502460423FFF78AFF034603E0FFF752
:1039B00086FF0346521E012B01D1002AF7D102B91E
:1039C0000523184600BD10B504244FF43020FFF73E
:1039D000E7FF0446042C16D19C48006940F004001F
:1039E0009A4908610846006940F0400008614FF4B8
:1039F0003020FFF7D5FF04469448006941F6FB717B
:103A0000084092490861204610BD00208F49C969CD
:103A100001F0020109B1012000E00020704730B53B
:103A2000A5250424FFF7F1FF00B100254FF4302055
:103A3000FFF75DFF0446042C3AD18548834988602E
:103A4000844888600846006940F020000861084604
:103A5000006940F0400008614FF43020FFF747FF55
:103A60000446042C1BD17948006941F6DF710840F7
:103A7000764908610846006940F010000861764800
:103A80000580E002FFF733FF0446052C10D06F4895
:103A9000006941F6EF7108406C49086108E0052CA7
:103AA00006D06A48006941F6EF710840674908612D
:103AB000204630BD78B506460C460425002000900F
:103AC000E802FFF714FF0546042D24D15F48006982
:103AD00040F001005D4908613480E802FFF707FF0C
:103AE0000546042D10D1B01C0090200C00990880D0
:103AF000E802FFF7FCFE05465448006941F6FE71F6
:103B000008405249086106E05048006941F6FE71DC
:103B100008404E490861284678BD70B504460D46F8
:103B20000426F002FFF7E3FE0646042E11D14748B3
:103B3000006940F00100454908612580F002FFF767
:103B4000D6FE06464148006941F6FE7108403F49ED
:103B50000861304670BD70B505460E460424E0028B
:103B6000FFF7C5FE0446042C17D139483749886051
:103B7000384888600846006940F0100008612E80CF
:103B8000E002FFF7B4FE0446052C06D02F4800697A
:103B900041F6EF7108402D490861204670BD2DE9BE
:103BA000F04304464FF6FF763746B046B14604254B
:103BB000E443E6B2C4F30727C4F307484FEA1469A5
:103BC000E802FFF794FE0546042D49D120481F491D
:103BD0008860204888600846006940F0100008614D
:103BE000FF2E06D01C4808300680E802FFF77FFE53
:103BF0000546042D08D1FF2F06D017480A3007804C
:103C0000E802FFF774FE0546042D0AD1B8F1FF0F54
:103C100007D011480C30A0F80080E802FFF767FEDB
:103C20000546042D0AD1B9F1FF0F07D00A480E301E
:103C3000A0F80090E802FFF75AFE0546052D0FD0C8
:103C40000248006941F6EF71084007E00020024099
:103C500023016745AB89EFCD00F8FF1F6649086176
:103C60002846BDE8F08330B5054604244FF43020E3
:103C7000FFF73DFE0446042C41D160485E49886050
:103C80005F4888600846006940F0200008610846E7
:103C9000006940F0400008614FF43020FFF727FE34
:103CA0000446042C22D15448006941F6DF710840D3
:103CB000514908610846006940F0100008611DB1D3
:103CC00000205049088002E0A5204E4908804FF4AA
:103CD0003020FFF70CFE0446052C10D04648006942
:103CE00041F6EF7108404449086108E0052C06D010
:103CF0004148006941F6DF7108403F4908612046AC
:103D000030BDF0B505460E46174604243B483A49F7
:103D100088603B488860E002FFF7E9FD0446042C18
:103D200019D13548006940F010003349086147F067
:103D3000F800304328433349891C0880E002FFF72C
:103D4000D6FD0446052C06D02B48006941F6EF71DC
:103D50000840294908612046F0BD2748C06980080D
:103D600070472548006A704700202349096801F020
:103D7000200109B1012000E00020704729B11E4A4E
:103D8000126902431C4B1A6104E01B4A1269824308
:103D9000194B1A61704701460020012908D1164AC3
:103DA000D26902F001020AB1012008E0002006E019
:103DB000114AD2680A400AB1012000E00020704791
:103DC0000D49C860704704200B49C96801F0010122
:103DD00009B101200EE00849C96801F0040109B1E8
:103DE000022007E00449C96801F0100109B103206D
:103DF00000E00420704700000020024023016745D6
:103E0000AB89EFCD00F8FF1F2DE9F05F06460F46A6
:103E100090460024B3463D46A1461CE068784FEA30
:103E2000002A287850441FFA80FAAD1C2046611CF5
:103E30008CB2194921F810A0B4F5806F07D1002485
:103E40004FF480625846FDF75EF80BF5006B09F100
:103E500002001FFA80F9C145E0D324B122460E4981
:103E60005846FDF750F8BDE8F09F10B504460B48E2
:103E7000844200D10A4C20680A490840B0F1005F32
:103E800008D16068084908602068FCF7B6F9064860
:103E90000068804710BD000014280020005003086F
:103EA000006003080000FE2F6C0000207047000037
:103EB00010B500F0F3F9001D10BD00BF05060000AD
:103EC00010B50446FFF7F4FF0068005D000704D555
:103ED000DF2C02D0A4F1200010BD204610BD000050
:103EE0000FB4044910B503AA029800F04BFA10BCB5
:103EF0005DF814FB3C0000202DE9F0410E4604461D
:103F0000002020622046E168884730B3252805D08C
:103F1000D4E901219047206A401CF2E7E16820467D
:103F200000278847050018D0A5F14100192802D8BC
:103F300020354FF400673246294620462760FCF7BB
:103F400031F940B1012804D0F61D26F007060836E5
:103F5000D8E7361DD6E72846DAE7206ABDE8F081C3
:103F600070B50C460546012A05D02878800600D594
:103F7000EA69002302E0012305E05B1C934202D2C0
:103F8000E05C0028F9D1A869E618C01AA861286A7F
:103F9000184428622846AFF3008004E0D5E90121E7
:103FA00014F8010B9047B442F8D32846AFF30080D1
:103FB00070BD00002DE9F041064600241068752907
:103FC000314616A510D0AFF30080002802DA404237
:103FD00013A507E031688A0701D512A502E0490759
:103FE00004D511A5012401E0AFF3008000210A22CD
:103FF00006F1240709E0B0FBF2FCB0FBF2F302FB90
:104000001C00303078541846491C0028F3D1234650
:104010002A463046BDE8F04100F044B900000000F7
:104020002D0000002B0000002000000070B50446A9
:104030000D4621461068AFF300802188090502D59E
:104040000F4A7A4402E00E4A7A440E32002104F10B
:10405000240305E000F00F060009965D5E54491C3C
:104060000028F7D120780023000704D5702D02D056
:1040700009B1022311322046BDE8704000F012B9A8
:10408000D806000030B505460B462A4613F8014B0A
:1040900012F8010B08B1A042F8D01CB1002802D0E0
:1040A0006D1CF1E7284630BD40EA010310B59B07BF
:1040B0000FD1042A0DD310C808C9121F9C42F8D092
:1040C00020BA19BA884201D9012010BD4FF0FF3043
:1040D00010BD1AB1D30703D0521C07E0002010BD59
:1040E00010F8013B11F8014B1B1B07D110F8013BE5
:1040F00011F8014B1B1B01D1921EF1D1184610BDC6
:1041000010B5431C02E010F8011B71B18107FAD110
:104110004FF0013202C88C1A8C4314EAC211F9D054
:10412000C01A0A0603D0C01E10BDC01A10BD0A0472
:1041300001D0801E10BD0902FCD0401E10BD421EE1
:1041400012F8013F002BFBD111F8013B002B02F8C4
:10415000013BF9D17047032A40F2308010F0030C84
:1041600000F0158011F8013BBCF1020F624498BFCA
:1041700011F801CB00F8013B38BF11F8013BA2F167
:10418000040298BF00F801CB38BF00F8013B11F0E2
:10419000030300F02580083AC0F0088051F8043B82
:1041A000083A51F804CBA0E80810F5E7121D5CBFEF
:1041B00051F8043B40F8043BAFF30080D20724BF22
:1041C00011F8013B11F801CB48BF11F8012B24BFB6
:1041D00000F8013B00F801CB48BF00F8012B704705
:1041E00010B5203AC0F00B80B1E81850203AA0E892
:1041F0001850B1E81850A0E81850BFF4F5AF5FEAC6
:10420000027C24BFB1E81850A0E8185044BF18C978
:1042100018C0BDE810405FEA827C24BF51F8043B1F
:1042200040F8043B08BF7047D20728BF31F8023B73
:1042300048BF11F8012B28BF20F8023B48BF00F807
:10424000012B70474FF0000200B513469446964686
:10425000203922BFA0E80C50A0E80C50B1F1200199
:10426000BFF4F7AF090728BFA0E80C5048BF0CC047
:104270005DF804EB890028BF40F8042B08BF7047A5
:1042800048BF20F8022B11F0804F18BF00F8012B17
:10429000704770477047704770470000004870478C
:1042A000AC0D00202DE9F0470D4699469246044694
:1042B00000F124080168880604D5E06921F01001A6
:1042C000216000E00120A84201DD471B00E000273B
:1042D000A1697A1902EB0900081AA0612078C006CA
:1042E00002D42046AFF30080002608E0D4E9012183
:1042F0001AF806009047206A401C761C20624E4542
:10430000F4DB2078C0060AD52046AFF3008006E033
:10431000D4E9012130209047206A401C2062381ED9
:10432000A7F10107F4DC07E0D4E9012118F8050042
:104330009047206A401C2062281EA5F10105F3DC8D
:104340002046AFF300802078000602D50220BDE8A9
:10435000F0870120FBE710B5436913B1AFF300808C
:1043600001E0FFF7FDFD012010BD127800F12401EE
:104370000A7000224A700122EDE711684FF0FF3207
:10438000E9E70000074B70B50D467B4400F015F8D7
:104390000446284600F024F810B14FF0FF3070BDFD
:1043A000204670BD09DFFFFF004870478C0D0020DC
:1043B00001694A1C02610878704700B58FB0CDE9E9
:1043C00001310021059105497944CDE903101146D9
:1043D0006846FFF791FD0FB000BD0000E5FFFFFF4D
:1043E000007B00F0800070474FF0013C50F8042B38
:1043F00051F8043B9A4221D1A2EB0C03934313EAF8
:10440000CC1317D150F8042B51F8043B9A4215D124
:10441000A2EB0C03934313EACC130BD150F8042BFB
:1044200051F8043B9A4209D1A2EB0C03934313EADF
:10443000CC13DBD04FF00000704700BFD01A01BA98
:10444000B1FA81F101F0180122FA01F0CB40C1F17B
:104450002001DBB2C0B2C01A2CFA01F3D11A914389
:1044600011EAC311E6D170477546FFF79DFFAE46CE
:1044700005006946534620F00700854618B020B570
:10448000FEF7E0FBBDE820404FF000064FF00007CC
:104490004FF000084FF0000B21F00701AC46ACE8EC
:1044A000C009ACE8C009ACE8C009ACE8C0098D4659
:1044B00070470446AFF300802046FBF794FE0000EF
:1044C00010B500290AD00878002807D0054878449C
:1044D000FFF78AFF002801D0002010BD0248784471
:1044E00010BD00009A0200009202000034353636FA
:1044F000003133392E3135392E3232302E313338C6
:104500000022002C0000C1814001C0804101C08018
:104510004100C1814001C0804100C1814000C18192
:104520004001C0804101C0804100C1814000C18183
:104530004001C0804100C1814001C0804101C08074
:104540004100C1814001C0804100C1814000C18162
:104550004001C0804100C1814001C0804101C08054
:104560004100C1814000C1814001C0804101C08043
:104570004100C1814001C0804100C1814000C18132
:104580004001C0804101C0804100C1814000C18123
:104590004001C0804100C1814001C0804101C08014
:1045A0004100C1814000C1814001C0804101C08003
:1045B0004100C1814001C0804100C1814000C181F2
:1045C0004001C0804100C1814001C0804101C080E4
:1045D0004100C1814001C0804100C1814000C181D2
:1045E0004001C0804101C0804100C1814000C181C3
:1045F0004001C0804100C1814001C0804101C080B4
:104600004100C1814000C0C101C30302C2C6060708
:10461000C705C5C404CC0C0DCD0FCFCE0E0ACACB36
:104620000BC90908C8D81819D91BDBDA1A1EDEDF36
:104630001FDD1D1CDC14D4D515D71716D6D21213C6
:10464000D311D1D010F03031F133F3F23236F6F726
:1046500037F53534F43CFCFD3DFF3F3EFEFA3A3B76
:10466000FB39F9F83828E8E929EB2B2AEAEE2E2F56
:10467000EF2DEDEC2CE42425E527E7E62622E2E306
:1046800023E12120E0A06061A163A3A26266A6A746
:1046900067A56564A46CACAD6DAF6F6EAEAA6A6BB6
:1046A000AB69A9A86878B8B979BB7B7ABABE7E7FB6
:1046B000BF7DBDBC7CB47475B577B7B67672B2B346
:1046C00073B17170B0509091519353529296565766
:1046D00097559594549C5C5D9D5F9F9E5E5A9A9BF6
:1046E0005B99595898884849894B8B8A4A4E8E8FD6
:1046F0004F8D4D4C8C448485458747468682424386
:10470000834181804022002C00343536360031331D
:10471000392E3135392E3232302E313338003031A6
:1047200032333435363738394142434445464030D8
:10473000580030313233343536373839616263648A
:1047400065664030780000007848000800000020CE
:10475000700000006C010008E848000870000020AC
:10476000A833000088010008100100004300000089
:10477000F8FFFFFF00404040404040404040414182
:104780004141414040404040404040404040404026
:1047900040404040400502020202020202020202C0
:1047A00002020202022020202020202020202002BD
:1047B000020202020202909090909090101010104D
:1047C00010101010101010101010101010101010E9
:1047D000020202020202888888888888080808087D
:1047E0000808080808080808080808080808080849
:1047F0000202020240000000000000000000000071
:1048000000000000000000000000000000000000A8
:104810000000000000000000000000000000000098
:104820000000000000000000000000000000000088
:104830000000000000000000000000000000000078
:104840000000000000000000000000000000000068
:104850000000000000000000000000000000000058
:104860000000000000000000000000000000000048
:1048700000000000000000002018999900000100CD
:104880000200000003000000000000000000010022
:104890000000000100A24A04000000000000000027
:1048A00001020304060708090000000000000000E0
:1048B00000000000000000000000000000000000F8
:1048C00002000000000000000000000000000000E6
:1048D00000000000010203040102030406070809A6
:0848E0000204060800000000BC
:0400000508000131BD
:00000001FF
